:100000000C945D000C947A000C947A000C947A00A5
:100010000C947A000C947A000C947A000C947A0078
:100020000C947A000C947A000C947A000C947A0068
:100030000C947A000C947A000C947A000C947A0058
:100040000C94CE010C947A000C947A000C947A00F3
:100050000C947A000C947A000C947A000C947A0038
:100060000C947A000C947A00000000080002010051
:100070000003040700000000000000000000000072
:10008000250028002B0000000000240027002A0083
:10009000040404040404040402020202020203032E
:1000A0000303030301020408102040800102040836
:1000B0001020010204081020DB0211241FBECFEF24
:1000C000D8E0DEBFCDBF21E0A0E0B1E001C01D92CD
:1000D000A136B207E1F710E0CDE5D0E004C02197EA
:1000E000FE010E944E03CC35D107C9F70E941802C9
:1000F0000C9454030C94000090E0FC01EC55FF4F6D
:100100002491FC01E057FF4F8491882399F090E0FF
:10011000880F991FFC01EA57FF4FA591B491FC018C
:10012000E458FF4F859194918FB7F894EC91E22BAE
:10013000EC938FBF089590E0FC01E859FF4F2491A4
:10014000FC01EC55FF4F3491FC01E057FF4FE49167
:10015000EE2309F43CC0222339F1233091F038F426
:100160002130A9F0223001F584B58F7D12C02730EF
:1001700091F02830A1F02430B9F4809180008F7D77
:1001800003C0809180008F77809380000DC084B57C
:100190008F7784BD09C08091B0008F7703C08091B4
:1001A000B0008F7D8093B000F0E0EE0FFF1FE458A9
:1001B000FF4FA591B4919FB7F894611104C08C9141
:1001C0003095382302C0EC913E2B3C939FBF08959D
:1001D0003FB7F8948091050190910601A091070125
:1001E000B091080126B5A89B05C02F3F19F00196D4
:1001F000A11DB11D3FBFBA2FA92F982F8827820FAD
:10020000911DA11DB11DBC01CD0142E0660F771FFC
:10021000881F991F4A95D1F708958F929F92AF92A8
:10022000BF92CF92DF92EF92FF926B017C010E940E
:10023000E8004B015C01C114D104E104F104F1F0C8
:100240000E94E800DC01CB0188199909AA09BB09C1
:10025000883E9340A105B10570F321E0C21AD10890
:10026000E108F10888EE880E83E0981EA11CB11CFD
:10027000C114D104E104F10419F7DDCFFF90EF9030
:10028000DF90CF90BF90AF909F908F900895AF92E6
:10029000BF92CF92DF92EF92FF920F931F93CF9373
:1002A000DF9300D0CDB7DEB769834A83880F991FEB
:1002B00000915F0110916001000F111FE9E0F1E072
:1002C0009F01295031402017310714F41192F8CFC3
:1002D0002981FC01E75FFE4F21838A81808360E0F2
:1002E00080915D010E949B001016110634F50150AB
:1002F0001109F801E75FFE4FC080B0905B01A0904C
:10030000590187E0E82EF12CD12CB6010E2C02C049
:10031000759567950A94E2F761708A2D0E949B009B
:1003200061E08B2D0E949B0060E08B2D0E949B0062
:1003300081E0E81AF10848F7D7CF61E080915D01CC
:100340000F900F90DF91CF911F910F91FF90EF9041
:10035000DF90CF90BF90AF900C949B00EF92FF92F4
:100360000F931F93CF937C018C0183E0000F111F2B
:100370008A95E1F7075E1E4FC1E0F80111928F01E7
:1003800040E06C2FC7010E944701CF5FC930A9F739
:10039000CF911F910F91FF90EF9008951F920F92B0
:1003A0000FB60F9211242F933F938F939F93AF9388
:1003B000BF938091010190910201A0910301B0913E
:1003C00004013091000123E0230F2D3720F4019622
:1003D000A11DB11D05C026E8230F0296A11DB11D68
:1003E000209300018093010190930201A0930301E7
:1003F000B09304018091050190910601A09107013D
:10040000B09108010196A11DB11D80930501909343
:100410000601A0930701B0930801BF91AF919F918E
:100420008F913F912F910F900FBE0F901F901895B5
:10043000789484B5826084BD84B5816084BD85B5BF
:10044000826085BD85B5816085BD80916E008160CB
:1004500080936E0010928100809181008260809371
:100460008100809181008160809381008091800073
:100470008160809380008091B10084608093B1009E
:100480008091B00081608093B00080917A00846098
:1004900080937A0080917A00826080937A008091C4
:1004A0007A00816080937A0080917A0080688093DE
:1004B0007A001092C10000915F0110916001C0E0CC
:1004C000D0E0C017D10734F5D7FD22C080915F017D
:1004D00090916001C817D9072CF440E06CE0CE0180
:1004E0000E94470180915F0190916001C817D90770
:1004F0002CF448E06AE0CE010E94470180915F0140
:1005000090916001C817D9071CF4CE010E94AE017A
:100510002196D7CF00E810E080E0E82E80E0F82EAA
:10052000C0E0D0E080915F0190916001181619063B
:1005300094F4A8010C2E02C0559547950A94E2F751
:1005400040958091190148234093190161E080E0B2
:1005500090E00E94470164EF71E080E090E00E942B
:100560000D0180915F0190916001181619068CF4BD
:1005700040911901C8010C2E02C0959587950A94E7
:10058000E2F7482B4093190161E080E090E00E947F
:10059000470164EF71E080E090E00E940D01219638
:1005A000C830D10509F0BECFE114F10409F4B8CF89
:1005B0000E940000B5CFCF93DF93CBE0D0E0D09383
:1005C0005A01C09359018DE090E090935C018093B3
:1005D0005B018AE090E090935E0180935D0181E091
:1005E00090E09093600180935F018BE00E947C001B
:1005F00080915B010E947C0080915D010E947C00E3
:1006000061E080915D010E949B00D0935A01C093EC
:100610005901E9E1F1E0119281E0E935F807D9F7F4
:10062000C0E0D0E080915F0190916001C817D907C8
:1006300094F540E06FE0CE010E944701D7FD0CC069
:1006400080915F0190916001C817D9072CF447E0B1
:100650006BE0CE010E94470140E069E0CE010E94BC
:100660004701D7FD16C080915F0190916001C817C6
:10067000D9071CF4CE010E94AE0180915F019091D8
:100680006001C817D9072CF440E06CE0CE010E944D
:1006900047012196C7CFDF91CF910895EE0FFF1F3D
:0C06A0000590F491E02D0994F894FFCF30
:107800000C94343C0C94513C0C94513C0C94513CE1
:107810000C94513C0C94513C0C94513C0C94513CB4
:107820000C94513C0C94513C0C94513C0C94513CA4
:107830000C94513C0C94513C0C94513C0C94513C94
:107840000C94513C0C94513C0C94513C0C94513C84
:107850000C94513C0C94513C0C94513C0C94513C74
:107860000C94513C0C94513C11241FBECFEFD8E036
:10787000DEBFCDBF11E0A0E0B1E0ECE9FFE702C060
:1078800005900D92A230B107D9F712E0A2E0B1E065
:1078900001C01D92AD30B107E1F70E942D3D0C945F
:1078A000CC3F0C94003C982F959595959595959582
:1078B000905D8F708A307CF0282F295A8091C0000B
:1078C00085FFFCCF9093C6008091C00085FFFCCF60
:1078D0002093C6000895282F205DF0CF982F809127
:1078E000C00085FFFCCF9093C6000895EF92FF92F1
:1078F0000F931F93EE24FF2487018091C00087FD22
:1079000017C00894E11CF11C011D111D81E4E8164B
:1079100082E4F8068FE0080780E0180770F3E09132
:107920000401F091050109958091C00087FFE9CF1E
:107930008091C6001F910F91FF90EF9008950E94D3
:10794000763C982F8091C00085FFFCCF9093C600B5
:1079500091362CF490330CF09053892F089597555D
:10796000892F08951F930E949F3C182F0E949F3CCF
:107970001295107F810F1F9108951F93182F882350
:1079800021F00E94763C1150E1F71F9108951F935A
:10799000182F0E94763C803249F0809103018F5F5E
:1079A000809303018530C1F01F9108958091C0003C
:1079B00085FFFCCF84E18093C6008091C00085FFE5
:1079C000FCCF1093C6008091C00085FFFCCF80E102
:1079D0008093C6001F910895E0910401F091050184
:1079E00009951F9108950E94763C803241F0809164
:1079F00003018F5F80930301853081F008958091AA
:107A0000C00085FFFCCF84E18093C6008091C00058
:107A100085FFFCCF80E18093C6000895E0910401CA
:107A2000F09105010995089540E951E08823A1F0FE
:107A30002D9A28EE33E0FA013197F1F721503040CA
:107A4000D1F72D9828EE33E0FA013197F1F7215064
:107A50003040D1F7815061F708953F924F925F9285
:107A60006F927F928F929F92AF92BF92CF92DF924E
:107A7000EF92FF920F931F93CF93DF93000080E16B
:107A80008093C4001092C50088E18093C10086E015
:107A90008093C2005098589A259A81E00E94143D24
:107AA00024E1F22E9EE1E92E85E9D82E0FE0C02ECA
:107AB00010E1B12EAA24A394B1E49B2EA6E58A2E50
:107AC000F2E57F2EE0E26E2E79E4572E63E5462E36
:107AD00050E5352E0E94763C8033B1F18133B9F107
:107AE000803409F46FC0813409F476C0823409F41B
:107AF00085C0853409F488C0803531F1823521F1A3
:107B0000813511F1853509F485C0863509F48DC0BC
:107B1000843609F496C0843709F403C1853709F423
:107B200072C1863709F466C0809103018F5F80932C
:107B30000301853079F6E0910401F0910501099582
:107B40000E94763C803351F60E94F33CC3CF0E94E2
:107B5000763C803249F78091C00085FFFCCFF092DF
:107B6000C6008091C00085FFFCCF9092C600809136
:107B7000C00085FFFCCF8092C6008091C00085FFC9
:107B8000FCCF7092C6008091C00085FFFCCF609250
:107B9000C6008091C00085FFFCCF5092C600809146
:107BA000C00085FFFCCF4092C6008091C00085FFD9
:107BB000FCCF3092C6008091C00085FFFCCFB09210
:107BC000C60088CF0E94763C863808F4BDCF0E945C
:107BD000763C0E94F33C7ECF0E94763C803809F4CC
:107BE0009CC0813809F40BC1823809F43CC1883942
:107BF00009F48FC080E00E94C73C6CCF84E10E94F2
:107C0000BD3C0E94F33C66CF85E00E94BD3C0E94D3
:107C1000F33C60CF0E94763C809306010E94763C44
:107C2000809307010E94F33C55CF0E94763C80333D
:107C300009F41DC183E00E94BD3C80E00E94C73C66
:107C400049CF0E94763C809309020E94763C809343
:107C5000080280910C028E7F80930C020E94763C79
:107C6000853409F415C18091080290910902892B8D
:107C700089F000E010E00E94763CF801E85FFE4FDA
:107C800080830F5F1F4F80910802909109020817AF
:107C9000190788F30E94763C803209F045CF809125
:107CA0000C0280FF01C16091060170910701660F0F
:107CB000771F7093070160930601A0910802B091AD
:107CC00009021097C9F0E8E0F1E09B01AD014E0F09
:107CD0005F1FF999FECF32BD21BD819180BDFA9A17
:107CE000F99A2F5F3F4FE417F50799F76A0F7B1F4B
:107CF00070930701609306018091C00085FFFCCF5F
:107D0000F092C6008091C00085FFFCCFB092C60003
:107D1000E1CE83E00E94C73CDDCE82E00E94C73CFA
:107D2000D9CE0E94763C809309020E94763C8093D3
:107D300008028091060190910701880F991F909386
:107D40000701809306010E94763C853409F4A6C0A1
:107D500080910C028E7F80930C020E94763C8032D0
:107D600009F0B8CE8091C00085FFFCCFF092C6002C
:107D7000609108027091090261157105B9F140E046
:107D800050E080910C02A82FA170B82FB27011C0E2
:107D9000BB2309F45CC0E0910601F0910701319624
:107DA000F0930701E09306014F5F5F4F46175707B7
:107DB000E8F4AA2369F3F999FECF209106013091E6
:107DC000070132BD21BDF89A90B58091C00085FFB2
:107DD000FCCF9093C6002F5F3F4F30930701209355
:107DE00006014F5F5F4F4617570718F38091C00099
:107DF00085FDE5CE8091C00085FFF8CFE0CE81E023
:107E00000E94C73C67CE0E94763C803209F08CCE3F
:107E10008091C00085FFFCCFF092C6008091C00029
:107E200085FFFCCFE092C6008091C00085FFFCCFAB
:107E3000D092C6008091C00085FFFCCFC092C600E2
:107E40008091C00085FFFCCFB092C60043CEE09188
:107E50000601F091070194918091C00085FFFCCF4D
:107E60009093C6009CCF80E10E94C73C33CE0E9415
:107E7000763C0E94763C182F0E94763C112309F430
:107E800083C0113009F484C08FE00E94C73C22CE29
:107E900080910C02816080930C02E5CE80910C02EF
:107EA000816080930C0259CF809107018823880F4D
:107EB000880B8A2180930B02809106019091070123
:107EC000880F991F90930701809306018091080203
:107ED00080FF09C080910802909109020196909359
:107EE000090280930802F894F999FECF1127E091D6
:107EF0000601F0910701C8E0D1E08091080290915D
:107F00000902103091F40091570001700130D9F34B
:107F100003E000935700E89500915700017001308D
:107F2000D9F301E100935700E89509901990009169
:107F3000570001700130D9F301E000935700E89534
:107F40001395103498F011270091570001700130FB
:107F5000D9F305E000935700E895009157000170B0
:107F60000130D9F301E100935700E895329602976A
:107F700009F0C7CF103011F00296E5CF112480919F
:107F8000C00085FFB9CEBCCE8EE10E94C73CA2CD19
:0C7F900085E90E94C73C9ECDF894FFCF0D
:027F9C00800063
:040000030000780081
:00000001FF
