:100000000C945D000C947A000C947A000C947A00A5
:100010000C947A000C947A000C947A000C947A0078
:100020000C947A000C947A000C947A000C947A0068
:100030000C947A000C947A000C947A000C947A0058
:100040000C94CE010C947A000C947A000C947A00F3
:100050000C947A000C947A000C947A000C947A0038
:100060000C947A000C947A00000000080002010051
:100070000003040700000000000000000000000072
:10008000250028002B0000000000240027002A0083
:10009000040404040404040402020202020203032E
:1000A0000303030301020408102040800102040836
:1000B0001020010204081020DB0211241FBECFEF24
:1000C000D8E0DEBFCDBF21E0A0E0B1E001C01D92CD
:1000D000A136B207E1F710E0CDE5D0E004C02197EA
:1000E000FE010E944E03CC35D107C9F70E941802C9
:1000F0000C9454030C94000090E0FC01EC55FF4F6D
:100100002491FC01E057FF4F8491882399F090E0FF
:10011000880F991FFC01EA57FF4FA591B491FC018C
:10012000E458FF4F859194918FB7F894EC91E22BAE
:10013000EC938FBF089590E0FC01E859FF4F2491A4
:10014000FC01EC55FF4F3491FC01E057FF4FE49167
:10015000EE2309F43CC0222339F1233091F038F426
:100160002130A9F0223001F584B58F7D12C02730EF
:1001700091F02830A1F02430B9F4809180008F7D77
:1001800003C0809180008F77809380000DC084B57C
:100190008F7784BD09C08091B0008F7703C08091B4
:1001A000B0008F7D8093B000F0E0EE0FFF1FE458A9
:1001B000FF4FA591B4919FB7F894611104C08C9141
:1001C0003095382302C0EC913E2B3C939FBF08959D
:1001D0003FB7F8948091050190910601A091070125
:1001E000B091080126B5A89B05C02F3F19F00196D4
:1001F000A11DB11D3FBFBA2FA92F982F8827820FAD
:10020000911DA11DB11DBC01CD0142E0660F771FFC
:10021000881F991F4A95D1F708958F929F92AF92A8
:10022000BF92CF92DF92EF92FF926B017C010E940E
:10023000E8004B015C01C114D104E104F104F1F0C8
:100240000E94E800DC01CB0188199909AA09BB09C1
:10025000883E9340A105B10570F321E0C21AD10890
:10026000E108F10888EE880E83E0981EA11CB11CFD
:10027000C114D104E104F10419F7DDCFFF90EF9030
:10028000DF90CF90BF90AF909F908F900895AF92E6
:10029000BF92CF92DF92EF92FF920F931F93CF9373
:1002A000DF9300D0CDB7DEB769834A83880F991FEB
:1002B00000915F0110916001000F111FE9E0F1E072
:1002C0009F01295031402017310714F41192F8CFC3
:1002D0002981FC01E75FFE4F21838A81808360E0F2
:1002E00080915D010E949B001016110634F50150AB
:1002F0001109F801E75FFE4FC080B0905B01A0904C
:10030000590187E0E82EF12CD12CB6010E2C02C049
:10031000759567950A94E2F761708A2D0E949B009B
:1003200061E08B2D0E949B0060E08B2D0E949B0062
:1003300081E0E81AF10848F7D7CF61E080915D01CC
:100340000F900F90DF91CF911F910F91FF90EF9041
:10035000DF90CF90BF90AF900C949B00EF92FF92F4
:100360000F931F93CF937C018C0183E0000F111F2B
:100370008A95E1F7075E1E4FC1E0F80111928F01E7
:1003800040E06C2FC7010E944701CF5FC930A9F739
:10039000CF911F910F91FF90EF9008951F920F92B0
:1003A0000FB60F9211242F933F938F939F93AF9388
:1003B000BF938091010190910201A0910301B0913E
:1003C00004013091000123E0230F2D3720F4019622
:1003D000A11DB11D05C026E8230F0296A11DB11D68
:1003E000209300018093010190930201A0930301E7
:1003F000B09304018091050190910601A09107013D
:10040000B09108010196A11DB11D80930501909343
:100410000601A0930701B0930801BF91AF919F918E
:100420008F913F912F910F900FBE0F901F901895B5
:10043000789484B5826084BD84B5816084BD85B5BF
:10044000826085BD85B5816085BD80916E008160CB
:1004500080936E0010928100809181008260809371
:100460008100809181008160809381008091800073
:100470008160809380008091B10084608093B1009E
:100480008091B00081608093B00080917A00846098
:1004900080937A0080917A00826080937A008091C4
:1004A0007A00816080937A0080917A0080688093DE
:1004B0007A001092C10000915F0110916001C0E0CC
:1004C000D0E0C017D10734F5D7FD22C080915F017D
:1004D00090916001C817D9072CF440E06CE0CE0180
:1004E0000E94470180915F0190916001C817D90770
:1004F0002CF448E06AE0CE010E94470180915F0140
:1005000090916001C817D9071CF4CE010E94AE017A
:100510002196D7CF00E810E080E0E82E80E0F82EAA
:10052000C0E0D0E080915F0190916001181619063B
:1005300094F4A8010C2E02C0559547950A94E2F751
:1005400040958091190148234093190161E080E0B2
:1005500090E00E94470164EF71E080E090E00E942B
:100560000D0180915F0190916001181619068CF4BD
:1005700040911901C8010C2E02C0959587950A94E7
:10058000E2F7482B4093190161E080E090E00E947F
:10059000470164EF71E080E090E00E940D01219638
:1005A000C830D10509F0BECFE114F10409F4B8CF89
:1005B0000E940000B5CFCF93DF93CBE0D0E0D09383
:1005C0005A01C09359018DE090E090935C018093B3
:1005D0005B018AE090E090935E0180935D0181E091
:1005E00090E09093600180935F018BE00E947C001B
:1005F00080915B010E947C0080915D010E947C00E3
:1006000061E080915D010E949B00D0935A01C093EC
:100610005901E9E1F1E0119281E0E935F807D9F7F4
:10062000C0E0D0E080915F0190916001C817D907C8
:1006300094F540E06FE0CE010E944701D7FD0CC069
:1006400080915F0190916001C817D9072CF447E0B1
:100650006BE0CE010E94470140E069E0CE010E94BC
:100660004701D7FD16C080915F0190916001C817C6
:10067000D9071CF4CE010E94AE0180915F019091D8
:100680006001C817D9072CF440E06CE0CE010E944D
:1006900047012196C7CFDF91CF910895EE0FFF1F3D
:0C06A0000590F491E02D0994F894FFCF30
:00000001FF
